:020000040800F2
:10000000200C002089010008731500086F150008F6
:1000100071150008D9020008FD1600080000000054
:10002000000000000000000000000000771500083C
:10003000DB0200080000000075150008A515000887
:10004000A3010008A3010008A3010008A301000800
:10005000A3010008A3010008A3010008A3010008F0
:10006000A3010008A3010008A3010008A3010008E0
:10007000A3010008A3010008A3010008A3010008D0
:10008000A3010008A3010008A3010008A3010008C0
:10009000F5160008A3010008A3010008A301000849
:1000A000A3010008A3010008A3010008A3010008A0
:1000B000A3010008A3010008A3010008A301000890
:1000C000A3010008A3010008A3010008A301000880
:1000D000A3010008A3010008A3010008A301000870
:1000E000A3010008A3010008A301000800F002F822
:1000F00000F03AF80AA090E8000C82448344AAF188
:100100000107DA4501D100F02FF8AFF2090EBAE885
:100110000F0013F0010F18BFFB1A43F0010318473B
:10012000D0190000F0190000103A24BF78C878C137
:10013000FAD8520724BF30C830C144BF04680C60ED
:10014000704700000023002400250026103A28BF35
:1001500078C1FBD8520728BF30C148BF0B60704739
:100160001FB51FBD10B510BD00F06BF81146FFF7AD
:10017000F7FF01F0F7FB00F089F803B4FFF7F2FF97
:1001800003BC00F091F80000094880470948004787
:10019000FEE7FEE7FEE7FEE7FEE7FEE7FEE7FEE737
:1001A000FEE7FEE704480549054A064B7047000094
:1001B00001160008ED00000820060020200C002099
:1001C0002008002020080020B2F120030AD5C2F147
:1001D000200320FA02F001FA03F340EA030021FAB7
:1001E00002F1704721FA03F04FF0000170474FF021
:1001F000000200B5134694469646203922BFA0E877
:100200000C50A0E80C50B1F12001BFF4F7AF090782
:1002100028BFA0E80C5048BF0CC05DF804EB890073
:1002200028BF40F8042B08BF704748BF20F8022BB6
:1002300011F0804F18BF00F8012B704770477047CE
:100240007047754600F02CF8AE46050069465346E7
:1002500020F00700854618B020B5FFF7A3FFBDE8E2
:1002600020404FF000064FF000074FF000084FF01D
:10027000000BAC46ACE8C009ACE8C009ACE8C0096A
:10028000ACE8C00921F007018D46704710B504465F
:10029000AFF300802046BDE81040FFF76EBF0000BE
:1002A000004870479800002001491820ABBEFEE7C7
:1002B00026000200704700000548016800686629B2
:1002C00008BF552800D07047024800F09DB800BF15
:1002D00000FC000800500008FEE77047204800219D
:1002E000C1610C48016841F004010160016841F0FE
:1002F00040010160704700BF19490022CA610549E9
:100300000A6842F002020A604860086840F0400053
:10031000086070471020024026480168C90601D4D1
:10032000002105E00E49CA6942F00202CA611021AB
:100330000268520706D50A4A41F00401D36943F026
:100340000103D3610269D20708D0054AD36943F09B
:100350000403D361026922F0010202610160704767
:10036000F8050020F8B5134E044600F027FD0546B9
:10037000671C3068C00709D0002FFAD024B100F004
:100380001DFD401BA042F4D90320F8BD3068800653
:1003900044BF202030603068C00607D43069C007F1
:1003A00004D1306840075CBF0020F8BDFFF7B4FF00
:1003B0000120F8BD0C200240F8B506460120144685
:1003C0000D4600EB922700F015FC0E480021C0E915
:1003D00002670160694600F06DFB80B909E02A6898
:1003E00002203146002300F0BBFB40B90435013C3C
:1003F0000436002CF3D100F0ABFB0020F8BD00F078
:10040000A3FBF8BD70010020D0E9001081F308883B
:100410000047704790F82020013A012A04D800686C
:1004200000F11402002004E000F1240201204FF446
:100430008021136819431160704770B590F82060EF
:100440000468013EA568012E0DD815F0E05F10D0BC
:10045000C5F30160012585401D608B687BB14D6847
:1004600043EAC5030DE000F1240101204FF480228E
:1004700023E000F1240101204FF400121DE00B687D
:100480005B0504EB0010D1E903452343C0F880313C
:10049000C0F88451097D012905D100F5C2710B68AE
:1004A00043F480730B605168C0F88C11116801220D
:1004B000C0F8881100F5C07100200B681A430A606B
:1004C00070BDF0B5026890F82030013B012B26D8B2
:1004D000D2F80002012340F00100C2F800024C698A
:1004E000CD6904F01F0003FA00F0D2F81C32012D90
:1004F00023EA0003C2F81C326FEA000315D05DBB8B
:10050000D2F80C521D40C2F80C52CE688F8802EB14
:10051000C40547EA0646C5F840620D4614E0416A44
:1005200041F4802141620120F0BDD2F80C52054314
:10053000C2F80C520E688F8802EBC40547EA0646E3
:10054000C5F8406201F10C058E682D8802EBC404E9
:1005500045EA0645C4F84452D2F804428F6944EA99
:1005600000050E69096A002F08BF04EA0305C2F8F6
:100570000452D2F81442002E44EA000508BF04EAEF
:1005800003050129C2F8145204D1D2F81C12084301
:10059000C2F81C02D2F8000220F00100C2F80002EA
:1005A0000020F0BD704770B590F82040013C012C50
:1005B00070D8046800290CBFE5682569AD076FD0C5
:1005C00004EB0114D4F8B05115F004059560D4F88B
:1005D000B06104F5D87519BFF6085660760D16603F
:1005E0002D6805F00205D560D4F8B46104F5DA751C
:1005F00036075ABF2E6806F00F06082616612E68C9
:100600000029C6F3072696612D684FEA1545556106
:10061000D4F8B8211A70026802EB0112D2F8B8219E
:100620004FEA12225A70026802EB0112D2F8B82186
:100630004FEA12429A70026802EB0112D2F8B82116
:100640004FEA1262DA70026802EB0112D2F8BC21A2
:100650001A71026802EB0112D2F8BC214FEA122291
:100660005A71026802EB0112D2F8BC214FEA124221
:100670009A71026802EB0112D2F8BC214FEA1262B1
:10068000DA7100680CBF00F10C0100F110010020CC
:1006900020220AE000F1240101204FF4802204E02E
:1006A00000F1240101204FF400120B681A430A6084
:1006B00070BD00002DE9F84F044600684669D0F887
:1006C00004908768D0F80CB0D0F810A0D0F818804B
:1006D000F10701D1002549E0F9070ED00121816021
:1006E000B80707D478071DD4380721D4204600F076
:1006F000D9F902E0204600F0D6F90025F8051CD50E
:1007000020684FF480718160B80507D478050CD457
:10071000380510D4204600F0C7F90EE0204600F05E
:10072000C4F90AE04FF40065E8E705F5005504E078
:100730004FF48055E2E705F58045F80316D52068AB
:100740004FF480318160B80307D4780309D43803AB
:100750000AD4204600F0AAF908E0204600F0A7F9E4
:1007600004E005F5004501E005F58035300707D5C3
:100770001BF0100004D02068102145F40075C16002
:10078000700708D51BF0080005D020680821C1605B
:10079000204600F045F9B00706D52068C0688007FC
:1007A00002D0204600F03EF9700607D51AF010007E
:1007B00004D02068102145F480650161B00608D599
:1007C0001AF0080005D0206808210161204600F0D9
:1007D0003BF9F00606D520680069800702D0204664
:1007E00000F033F9B00308D519F0100005D02068E7
:1007F00010214160204600F029F9F00308D519F0D6
:10080000080005D0206808214160204600F050F91A
:10081000300440D55FEA49703AD506F4807008EAA2
:10082000102028435FEA8871014648BF41F0020169
:10083000B20558BF01465FEA48700D4648BF45F013
:100840000405700558BF0D46300521D518F070001D
:100850001ED010380009052815D8DFE800F003067F
:10086000090C0F1245F008050DE045F010050AE0EF
:1008700045F0200507E045F0400504E045F080051F
:1008800001E045F480752068816921F07001816183
:100890002068042141603DB1606A284360622046BF
:1008A000BDE8F84FFFF77EBEBDE8F88F70B5C0B168
:1008B000044690F8200010B9204600F06FF8206838
:1008C000016841F00101016000F078FA05462068F6
:1008D0004168C90707D100F071FA401B0B28F6D315
:1008E00011E0012070BD016821F00201016000F0FB
:1008F00065FA05462068416889070BD500F05EFA65
:10090000401B0B28F6D3606A052140F4003060627A
:10091000012040E0217E0268012922F0800308BF07
:1009200042F080030360617E0268012922F04003E7
:1009300008BF42F040030360A17E0268012922F053
:10094000200308BF42F020030360E17E0268012912
:1009500042F0100308BF22F010030360217F0268F9
:10096000012922F0080308BF42F008030360617FF9
:100970000268012922F0040308BF42F00403036067
:10098000261D6ECE1A432A43324301391143C161F9
:1009900000200121606284F8201070BDB0B586B0DF
:1009A0000021CDE90411CDE902111C4C0068A4F529
:1009B000244290422FD1F74802AD426842F00072C3
:1009C0004260426802F000720192019A026842F0AD
:1009D00004020260006800F0040001904FF400601F
:1009E000CDE90311029001982046294600F016F93E
:1009F00003200590022003904FF48050029020467F
:100A0000294600F00BF914200021002200F038FAEA
:100A1000142000F027FA06B0B0BD00BF0008014066
:100A200070470000064901220A70064A01F11403CA
:100A30001268520D4A6001F11C020021FFF7B3BD9C
:100A400038010020B0650040704770477047B0B56E
:100A5000044690F8200001281BD1022084F82000D1
:100A60002068016821F00101016000F0A7F9054646
:100A700020684068C00712D000F0A0F9401B0B2886
:100A8000F6D3606A40F400306062052084F82000EC
:100A900003E0606A40F4002060620120B0BD0020E5
:100AA0006062B0BD704770477047704770477047CD
:100AB000704700002DE9F041DFF83081054698F8D5
:100AC0001800012801D102201CE0012088F818003C
:100AD0002E684CF250300C46FFF744FC022E0CD12D
:100AE00060B9FFF7FBFB4CF25030FFF73BFC40498D
:100AF0000A6822F004020A6001E030B101200021FE
:100B000088F81810C0B2BDE8F0814FF0FF302060C7
:100B1000A968374F01200E46EA6801EB82218E4218
:100B2000EDD23046FFF7E8FB4CF25030FFF71AFCED
:100B3000396821F00201396020B9A96806F580669C
:100B40000020E9E72660DAE72848C069704700BF5F
:100B50002748016841F0800101600020704700BF14
:100B60002DE9F84FDFF88480814698F818000128B5
:100B700004BF0220BDE8F88F012088F818004CF26D
:100B800050309A4693460E46FFF7ECFB40BB4F466B
:100B9000174CB9F1020F18BF04270025B9F1010F56
:100BA00008BF4F465FFA85F900204F4518D9C8F8AD
:100BB0001C0020684FEA091240F0010020605846EE
:100BC0005146FFF701FB26F819004CF25030FFF7B1
:100BD000C9FB2168013521F0010100282160E1D025
:100BE000002188F81810BDE8F88F00BFF805002034
:100BF000102002400648C16809065CBF002070470B
:100C00000449016004490160C068C0F3C010704726
:100C10000420024023016745AB89EFCD2DE9FC4F4D
:100C2000594A04234FF0000B4FF001084FF00F0E0C
:100C30004FF000090025904208BF032300930B6882
:100C400033FA05F208BFBDE8FC8F08FA05F213423B
:100C500000F096804F68032F16D9112F24D0122F41
:100C600026D04D4B9F4213D04C4B9F4210D04C4B43
:100C70009F420DD04B4B9F420AD04B4B9F4207D017
:100C80004A4B9F4204D020E0DFE807F00216191D0E
:100C90008B6833B1012B14BF426102614FF0080928
:100CA00013E04FF0040910E0CB6803F104090CE0F5
:100CB000CB6803F10C0908E0D1F80C9005E0CB6893
:100CC00003F1080901E04FF000095B460646082DD4
:100CD00028BF203B28BF043637680EFA03F427EA02
:100CE000040409FA03F323433360CB79DB0647D5C9
:100CF0005B4B264E1C461B68A6F57E7643F001032F
:100D0000236023680BF00C0C03F001030193019C9A
:100D1000AC0856F824700EFA0CF327EA030A244BA9
:100D2000984208D0234B984207D0234B9842009B0F
:100D300008BF022302E0002300E0012303FA0CF3C2
:100D400043EA0A0346F824304F68104CFB02A368BC
:100D500054BF934313430E4EA360BB02336854BF8A
:100D6000934313433360BB03636854BF93431343FC
:100D70006360FB03236854BF23EA02021A43226024
:100D80000BF1040B01355AE7001401400004014047
:100D90000C04014018100240000011100000121055
:100DA000000021100000221000003110000032105D
:100DB00000080140000C0140001001400548006897
:100DC000704700BF1A48034900780A681044086059
:100DD000704700BF1806002080B58B48016841F0BD
:100DE00010010160032000F067F80F2000F004F804
:100DF00000F020F8002080BD70B50D4E044630781C
:100E00004FF47A71B1FBF0F08C490968B1FBF0F056
:100E100000F0DAFA01250F2C08D838B94FF0FF306E
:100E200021460022002500F02BF87460284670BD92
:100E30006000002082B00A48016841F001010160B1
:100E4000016801F0010101910199416841F080516F
:100E50004160406800F080500090009802B07047F8
:100E600018100240002808D400F01F01012202FAE5
:100E700001F1024A400942F82010704700E100E009
:100E8000B0B5134B4FF0FF351B68C3F30223DC1ED4
:100E900083F0070338BF0024042B28BF042305FA7E
:100EA00003F3994305FA04F3A1409A431143BDE8C3
:100EB000B04000F025BC00BF05494FF6FF030A68AB
:100EC0001A4060F30A22034810430860704700BFCD
:100ED0000CED00E00000FA052DE9F843002800F0D1
:100EE0009080884648490446086800F0070040455D
:100EF0000AD2086820F0070040EA08000860086885
:100F000000F0070040457CD120685B4B8946810793
:100F100011D5410703D5196841F4E0611960010753
:100F200003D5196841F460511960A1681A6822F06C
:100F3000F00211431960C0072BD06068012804D16A
:100F400053F8041C890309D45BE053F8041C0228FD
:100F500002D1890102D454E0890752D519681D468F
:100F600021F0030108431860FFF728FF064641F20D
:100F70008837606829682B4601F00C01B1EB800FBF
:100F800007D0FFF71BFF801BB842F2D90320BDE852
:100F9000F883D9F8000000F0070040450DD9D9F8D2
:100FA000000020F0070040EA0800C9F80000D9F866
:100FB000000000F00700404523D12068410705D517
:100FC000E1681A6822F4E06211431960000706D54F
:100FD0002069196821F4605141EAC00018601C467C
:100FE00000F030F82168094AC1F30311515CC84090
:100FF000F349086006480068FFF7FEFE0020BDE8E0
:10100000F8830120BDE8F88300200240C81A0008D8
:1010100064000020EA48184900680968084AC1F3DA
:101020000221515CC8407047E548134900680968CF
:10103000034AC1F3C221515CC840704790000020B0
:10104000D81A000810B50C490C480A6802F00C03C5
:10105000082B07D1C2F3834309A4E35CD20302D473
:101060000C48584310BD096809A2C1F34041515CC6
:101070005843B0FBF1F010BD0410024000127A009A
:1010800002030405060708090A0B0C0D0E0F1010C9
:101090000102000000093D002DE9FC41002800F09C
:1010A000CC8004460078C44EC0074AD0706800F077
:1010B0000C00042817D0706800F00C00082802D13A
:1010C0007068C0030FD4606898B1B0F5803F06D057
:1010D0003168B0F5A02F21D141F480203060306814
:1010E00040F4803020E0306880032AD5606840BB3F
:1010F000A3E0306820F480303060306820F4802035
:101100003060FFF75BFE05463068800319D5FFF7B6
:1011100055FE411B03206429F6D94AE121F48030B1
:101120003060306820F480203060FFF747FE0546CD
:101130003068800305D4FFF741FE401B6428F7D9CF
:101140000AE1207880072CD5706810F00C0F07D0CA
:10115000706800F00C00082809D17068C00306D43C
:101160003068800716D52069012813D065E0216911
:101170009248002900F0B58001210160FFF71EFEB2
:1011800005463068800705D4FFF718FE401B02288B
:10119000F7D9E1E06069316821F0F80141EAC00067
:1011A0003060207800072ED5A06978B183480121EE
:1011B000C0F88014FFF702FE0546706A800715D458
:1011C000FFF7FCFD401B0228F7D9C5E07B48002152
:1011D000C0F88014FFF7F2FD0546706A800712D54B
:1011E000FFF7ECFD401B0228F7D9B5E074484FF437
:1011F000FA510068B0FBF1F0019000BF0198411E68
:1012000000280191F9D12078400719D4E769002F0F
:1012100000F0CE80706800F00C00082843D1012F48
:101220000BD0216A706800F480328A4205D1616A6D
:1012300000F47010884200F0BB800120BDE8FC8102
:10124000F069C0000BD4F0694FF0010840F0805005
:10125000F061F06900F080500090009801E04FF0DC
:101260000008584F3868C0050FD4386840F48070C3
:101270003860FFF7A3FD05463868C00505D4FFF7C1
:101280009DFD401B6428F7D966E0E068C8B30128DB
:1012900005D0316A05284BD141F004003062306A34
:1012A00040F001004AE04549002088460866FFF703
:1012B00085FD0546022F0AD147463068800157D583
:1012C000FFF77CFD411B03200229F6D971E030684D
:1012D00080016DD5FFF772FD411B03200229F6D96D
:1012E00067E000210160FFF769FD0546306880076F
:1012F0007FF557AFFFF762FD411B03200229F5D9A7
:1013000057E0306A20F001003062306A20F00400BB
:101310003062FFF753FD054641F28837306A800797
:101320001DD5FFF74BFD411B0320B942F6D940E024
:1013300021F001003062306A20F004003062FFF7D3
:101340003DFD054641F28837306A800707D4FFF734
:1013500035FD401BB842F7D90320BDE8FC81B8F148
:10136000000F3FF453AFF06920F08050F0614DE77B
:10137000206AB0F5803F05D1A168726822F400327E
:1013800011437160616A0843716821F47411084364
:10139000706001203866FFF711FD04463068800157
:1013A00006D4FFF70BFD011B03200229F6D900E04C
:1013B0000020BDE8FC8100BF001002400000424256
:1013C0009000002000700040411E0020B0EB116F23
:1013D0001CBF01207047044AF023516003490B7081
:1013E000072190601160704710E000E023ED00E0FD
:1013F00058B310B5044690F8410028B9002084F88D
:101400004000204600F024F8242084F841002068A1
:10141000C16821F40051C160204600F0F3F8206853
:10142000016921F490410161416921F02A01416182
:10143000C16841F40051C16000202021606484F83B
:10144000411084F84210606310BD01207047000015
:1014500070B586B00026CDE90466CDE90266184C69
:10146000006804F54051884227D1164802AD016852
:1014700041F480410160016801F4804101910199CA
:10148000016841F0040101600068294600F0040091
:10149000019003200590022003904FF40070029009
:1014A00001982046FFF7BAFB4FF48060CDE9036650
:1014B000029020462946FFF7B1FB06B070BD00BF81
:1014C00000080140181002402DE9F843044690F846
:1014D000410020281CBF0220BDE8F8838846012077
:1014E000002942D01746002A3FD04FF000092120A2
:1014F0001D46C4F8449084F84100FFF75FFCE78480
:10150000A7840646A068B0F5805F05D12769002F43
:101510000CBFC146474600E04746E08CB8B12046C4
:10152000802132462B4600F0ADF8B8B927B117F844
:10153000010B2168486006E039F8021B20686FF350
:101540005F2141600027E08C0138E084E5E7204618
:10155000402132462B4600F095F810B10320BDE83B
:10156000F883202084F841000020BDE8F883FEE7DE
:10157000FEE7FEE770477047064900200D22C1E9EB
:101580000020C1E902000861F248F44AF44BFEF77A
:1015900054BF00BF88050020EE48EF49EF4AF04BEA
:1015A000FEF74BBFFFF70EBCB0B590B006AC201DE8
:1015B0002421FEF71CFE01A81421FEF718FE0025C9
:1015C00010200D950B9001200A90022006902046D5
:1015D000FFF762FD18B1EFF3108072B6FEE70F203F
:1015E0000295019001A80021CDE903550595FFF76B
:1015F00073FC18B1EFF3108072B6FEE710B0B0BD07
:1016000070470000B0B50446006804F108030ECB33
:101610000569194325F440552A430261C26863698C
:1016200041F20C65AA4319431143C1604169A269A3
:1016300021F44071114341611149884202D0FFF702
:10164000E9FC01E0FFF7F0FC19214843D4E900125E
:101650006FF063049200B0FBF2F06422B0FBF2F38F
:1016600003FB0400322404EB0010B0FBF2F000F0A6
:10167000F00202EB031200F00F0010448860B0BDCE
:10168000003801402DE9F0411D4690460F460446C2
:101690005E1C206800683840B84227D0002EF8D081
:1016A0002DB1FFF78BFBA0EB0800A842F1D9206811
:1016B00050E8030F216820F4D07041E80302002AAB
:1016C000F5D1206850E8050F216820F0010041E8BD
:1016D0000502002AF5D12020002184F8410084F879
:1016E000401084F842000320BDE8F0810020BDE8EE
:1016F000F08100009748FEF7DDBF00BFFEE7000065
:1017000010B5074C00F00F032344044AB0F1FF3F2B
:10171000C8BF83180801187010BD00BF00E400E0C6
:1017200014ED00E084B0FEF7C7FD814890E80E009C
:10173000C0688DE80E0003907E486946FFF76EFA98
:10174000DFF8F481DF4D08F1460128461A224FF4F4
:101750007A73FFF7B9FEDFF8ECB17C4F4FF0000968
:1017600008F11F0608F132044FF0000A9BF8000050
:101770000028FBD0DBF804000738062828D8DFE86B
:1017800000F0041B27272F405100DBF80800002839
:1017900078D1DBF808006E490130CBF80800284604
:1017A00028224FF47A73FFF78FFE6A486A496B4A22
:1017B0006B4BFEF742FEB8E00BF11400002120292C
:1017C0005AD010F8012B8A404AEA020A0831F6E79B
:1017D0002846314613224FF47A73FFF775FEA4E0D2
:1017E000DBF8080002284FD1DBF80C000BF11401E4
:1017F0000022202A52D011F8013B934018430832AE
:10180000F7E7DBF8080003283ED1DBF810004E496B
:101810000A180021042949D00BEB01031B7D535406
:101820000131F7E7DBF8080004282DD14448414690
:10183000814600680122FEF7BFFDD9F8000008F1DB
:101840000401043001224FF00009FEF7B5FDDBF87A
:10185000080008F10C010130CBF8080028461322DB
:101860004FF47A73FFF730FEFFF796FE334803C854
:1018700080F30888084758E0BA45DBF8080008BF3D
:1018800001283ED0CBF808902846214614224FF478
:101890007A73FFF719FEFFF76FFE46E0CBF80C00F6
:1018A000DBF808000130CBF808001FE00844CBF853
:1018B0001000DBF80C10A0F580600839CBF80C1094
:1018C00004D1DBF808100131CBF8081070B9D8F852
:1018D00008001D494FF48072FEF76EFDD8F808002D
:1018E000CBF8109000F58060C8F8080008F10C01F2
:1018F000284613224FF47A73FFF7E6FDFFF74CFEFC
:1019000013E0DBF8080012490130CBF80800284644
:1019100013224FF47A73FFF7D7FD0E480E490F4A92
:101920000F4BFEF78AFD4FF0000A8BF800901DE781
:10193000E01A0008001001400000002000500008DC
:1019400000FC00083801002080010020DECF37AB0A
:101950006800002010010020F80000208005002011
:10196000A0050020B2B0FFF737FAFFF71DFE51497E
:10197000514D0868514F40F004000860284640F877
:10198000187F4FF4800242614FF430220026012478
:101990000261C0E9026644600968866101F00401E1
:1019A000868328912899FEF781FF18B1EFF3108004
:1019B00072B6FEE70A200D214FF460423094CDE963
:1019C0002C603191CDE92E642B96CDE92962E0227D
:1019D000CDE927124FF48032CDE92544CDE9230625
:1019E000CDE92166CDE91F624FF48072CDE91D1269
:1019F0004FF49032CDE91B44CDE91906CDE91766C5
:101A0000CDE915624FF49072CDE913124FF4A03274
:101A1000CDE91144CDE90F06CDE90D66CDE90B62A4
:101A20004FF4A072CDE90912CDE90744CDE90506CE
:101A30004FF4B030CDE90366CDE901604FF4B070EA
:101A400005F11804B8461E4F009028A92046B84753
:101A50001EA92046B84714A92046B8470AA920461F
:101A6000B84769462046B84716480C274FF4165128
:101A700008F55442C0E90021C0E90266C0E90467E4
:101A8000C0E90666FFF7B4FC18B1EFF3108072B638
:101A9000FEE72046FEF7DBFF20460221FEF7BAFCF8
:101AA0000020C5E90070C5E902002861FFF73AFE91
:101AB000FEE700BF18100240F8000020006400405C
:101AC000C3040008B0050020000000000000000072
:101AD00001020304060708090000000001020304D4
:101AE00000200000010000000000000002000000D3
:101AF000101B0008000000209800000028010008CA
:101B0000A81B000898000020880B00004401000872
:101B100066000000550000000050000820446F6E71
:101B2000652C20436F6E74696E7565200D0A00493F
:101B30006E76616C69642052657175657374200DF1
:101B40000A00496E76616C69642053657175656E33
:101B50006365200D0A00426F6F74206C6F616465CD
:101B6000722069732052756E6E696E67200D0A00CF
:101B7000010000001000000050726F6772616D6D0F
:101B8000696E672053657373696F6E20446F6E656D
:101B9000212C2053656E642044617461200D0A007D
:081BA0000024F4000000000025
:04000005080000ED02
:00000001FF
